:020000040800F2
:1000000000500020712800084D2800084F280008E3
:100010005128000853280008552800080000000057
:10002000000000000000000000000000A111000816
:100030005728000800000000411200085928000855
:10004000B9280008B9280008B9280008B92800080C
:10005000B9280008B9280008B9280008B9280008FC
:10006000B9280008B9280008B9280008B9280008EC
:10007000B9280008B9280008B9280008B9280008DC
:10008000B9280008B9280008B9280008B9280008CC
:10009000B9280008B9280008B9280008B9280008BC
:1000A000B9280008B9280008B9280008B9280008AC
:1000B000B9280008B9280008B9280008B92800089C
:1000C000B9280008B9280008B9280008B92800088C
:1000D000B9280008B9280008B9280008B92800087C
:1000E000B9280008B9280008B92800080000000055
:1000F0000000000000000000000000000000000000
:0C01000000000000000000005FF808F1A3
:1001100010B5054C237833B9044B13B10448AFF341
:1001200000800123237010BD700200200000000039
:100130004432000808B5034B1BB103490348AFF331
:10014000008008BD00000000740200204432000856
:1001500010B504460E4B1A784FF47A73B3FBF2F3E2
:100160000C4A1068B0FBF3F000F0A6F868B90F2C49
:1001700001D901200AE0002221464FF0FF3000F0B3
:100180008BF8054B1C60002000E0012010BD00BF73
:10019000000000201C0200200400002008B5074ACF
:1001A000136843F010031360032000F063F80F207E
:1001B000FFF7CEFF02F0E6FA002008BD0020024063
:1001C000034A1168034B1B780B441360704700BF50
:1001D0008C02002000000020014B1868704700BF0F
:1001E0008C02002038B50446FFF7F6FF0546B4F14F
:1001F000FF3F02D0044B1B781C44FFF7EDFF401B70
:10020000A042FAD338BD00BF00000020002808DB60
:100210000901C9B200F1604000F5614080F80013A7
:10022000704700F00F000901C9B2014B1954704723
:1002300014ED00E000B500F00700C0F1070CBCF1C0
:10024000040F28BF4FF0040C031D062B0FD9C31E4B
:100250004FF0FF3E0EFA0CF021EA000199400EFA31
:1002600003FE22EA0E0241EA02005DF804FB0023CD
:10027000EEE70000074AD36823F4E0631B041B0C7D
:10028000000200F4E060034343F0BF6343F4003333
:10029000D360704700ED00E010B50446054BD86808
:1002A000C0F30220FFF7C6FF01462046FFF7AEFF6E
:1002B00010BD00BF00ED00E00138B0F1807F0BD22F
:1002C0004FF0E0235861054AF02182F82310002006
:1002D000986107221A6170470120704700ED00E025
:1002E00070B582B00024A446A2E07E4DAB4210D08F
:1002F00007D97D4DAB420CD005F58035AB4208D017
:1003000013E0A5F58015AB4203D005F57025AB428F
:1003100007D18B68002B55D0012B4ED042610824A9
:1003200003E0A5F58015AB42F3D0BEF1FF0F4BD82B
:1003300006464FEA8C0233680F25954023EA0503F1
:1003400004FA02F2134333604B6813F0805F6DD000
:10035000664B9A6942F001029A619B6903F00103BE
:100360000193019B4FEA9C02951C614B53F8256059
:100370000CF00305AD000F23AB4026EA03065D4BEE
:10038000984228D003F58063984200F08D8003F5F1
:100390008063984200F08A8003F58063984218D009
:1003A000042319E0CC68C0E7CC680434BDE7CC680E
:1003B0000834BAE7CC680C34B7E702610824B4E724
:1003C0000024B2E70424B0E7061DACF10802920055
:1003D000B1E7032300E00023AB4033430232444D36
:1003E00045F822304B6813F4801F61D0424A93686D
:1003F00043EA0E0393604B6813F4001F5ED03E4A3D
:10040000D36843EA0E03D3604B6813F4003F5BD01C
:10041000394A536843EA0E0353604B6813F4803F34
:1004200058D0354A136843EA0E0313600CF1010CEF
:100430000B6833FA0CF253D0012202FA0CF203EAF1
:10044000020E32EA0303F1D14B68122B3FF64DAF97
:10045000122B3FF66AAF01A555F823F013030008ED
:10046000A5030008AF030008C10300082B03000820
:100470002B0300082B0300082B0300082B030008A4
:100480002B0300082B0300082B0300082B03000894
:100490002B0300082B0300082B0300082B03000884
:1004A000A9030008B5030008012395E7022393E799
:1004B000114A936823EA0E0393609CE70E4AD368BF
:1004C00023EA0E03D3609FE70B4A536823EA0E0327
:1004D0005360A2E7084A136823EA0E031360A5E7F6
:1004E00002B070BD00002210000031100010024068
:1004F00000000140000801400004014083681942E7
:1005000001D001207047002070470AB10161704797
:10051000090401617047C36801EA030221EA03018B
:1005200041EA02410161704782B0084B1B68084AEA
:10053000A2FB03235B0A00FB03F3019300BF019BB3
:100540005A1E0192002BF9D102B070471C02002004
:10055000D34D6210002800F0F18170B582B00446DE
:10056000036813F0010F2CD0994B5B6803F00C0368
:10057000042B1DD0964B5B6803F00C03082B12D0A4
:100580006368B3F5803F41D0002B55D103F1804320
:1005900003F504331A6822F480321A601A6822F4D0
:1005A00080221A6037E08A4B5B6813F4803FE7D003
:1005B000874B1B6813F4003F03D06368002B00F0E7
:1005C000BF81236813F0020F75D0814B5B6813F075
:1005D0000C0F5FD07E4B5B6803F00C03082B54D0EC
:1005E0002369002B00F08A807A4B01221A60FFF702
:1005F000F3FD0546764B1B6813F0020F75D1FFF72C
:10060000EBFD401B0228F5D903209EE1704A1368D8
:1006100043F480331360636843B3FFF7DDFD0546A1
:100620006B4B1B6813F4003FCBD1FFF7D5FD401B8C
:100630006428F5D9032088E1B3F5A02F09D0644BD5
:100640001A6822F480321A601A6822F480221A6032
:10065000E1E703F18043A3F53C331A6842F48022BA
:100660001A601A6842F480321A60D4E7FFF7B4FDCA
:100670000546574B1B6813F4003FA2D0FFF7ACFDB3
:10068000401B6428F5D903205FE1514B5B6813F4EC
:10069000803FA5D14E4B1B6813F0020F03D0236996
:1006A000012B40F04F814A4A136823F0F803616937
:1006B00043EAC1031360236813F0080F33D0A36922
:1006C000002B5CD0434B0122C3F88024FFF784FD4C
:1006D00005463F4B5B6A13F0020F21D1FFF77CFD0B
:1006E000401B0228F5D903202FE1394A136823F073
:1006F000F803616943EAC1031360DCE7354B00226C
:100700001A60FFF769FD0546314B1B6813F0020FB5
:10071000D1D0FFF761FD401B0228F5D9032014E179
:100720000120FFF701FF236813F0040F00F096800B
:10073000274BDB6913F0805F34D1254BDA6942F037
:100740008052DA61DB6903F080530193019B01253C
:10075000214B1B6813F4807F26D0E368012B3DD02A
:10076000002B53D103F1804303F504331A6A22F0BE
:1007700001021A621A6A22F004021A6233E0154B6F
:100780000022C3F88024FFF727FD0546104B5B6A63
:1007900013F0020FC7D0FFF71FFD401B0228F5D949
:1007A0000320D2E00025D3E70B4A136843F480739B
:1007B0001360FFF711FD0646074B1B6813F4807F9B
:1007C000CBD1FFF709FD801B6428F5D90320BCE0DD
:1007D0000010024000004242007000405F4A136A6D
:1007E00043F001031362E36833B3FFF7F5FC0646F9
:1007F0005A4B1B6A13F0020F2FD1FFF7EDFC801B41
:1008000041F288339842F3D903209EE0052B09D0AA
:10081000524B1A6A22F001021A621A6A22F004028A
:100820001A62E0E74D4B1A6A42F004021A621A6A31
:1008300042F001021A62D6E7FFF7CEFC0646474BAC
:100840001B6A13F0020F08D0FFF7C6FC801B41F2B1
:1008500088339842F3D9032077E0E5B9E369002BA8
:1008600072D03E4A526802F00C02082A56D0022B7F
:1008700017D03B4B00221A66FFF7AEFC0446374BFD
:100880001B6813F0007F47D0FFF7A6FC001B02286F
:10089000F5D9032059E0314AD36923F08053D3615D
:1008A000DCE72F4B00221A66FFF796FC05462B4B20
:1008B0001B6813F0007F06D0FFF78EFC401B022858
:1008C000F5D9032041E0236AB3F5803F1AD02349CC
:1008D0004B6823F47413226A606A024313434B602B
:1008E0001F4B01221A66FFF777FC04461B4B1B685F
:1008F00013F0007F0ED1FFF76FFC001B0228F5D923
:10090000032022E0154A536823F40033A1680B4307
:100910005360DCE7002018E0002016E0012B16D021
:100920000E4B5B6803F48031226A914211D103F4CB
:100930007013626A93420ED1002006E001207047D6
:10094000012002E0012000E0002002B070BD012083
:10095000FBE70120F9E70120F7E700BF00100240A4
:10096000000042420F4B5B6803F00C02082A01D0E2
:100970000D487047C3F383420C49885C13F4803FF1
:100980000BD0084B5B68C3F34043094AD35C064A6B
:1009900002FB00F0B0FBF3F07047064B03FB00F0E6
:1009A000704700BF0010024000127A006032000859
:1009B0005C32000800093D00002800F0A08070B5FE
:1009C0000D460446524B1B6803F007038B420BD2C3
:1009D0004F4A136823F007030B431360136803F0B7
:1009E00007038B4240F08D80236813F0020F17D06D
:1009F00013F0040F04D0474A536843F4E063536094
:100A0000236813F0080F04D0424A536843F460533C
:100A10005360404A536823F0F003A1680B435360CE
:100A2000236813F0010F31D06368012B20D0022B13
:100A300025D0384A126812F0020F64D035494A684E
:100A400022F0030213434B60FFF7C6FB0646314B0F
:100A50005B6803F00C036268B3EB820F16D0FFF7FC
:100A6000BBFB801B41F288339842F0D9032045E05C
:100A7000284A126812F4003FE0D101203EE0254AE6
:100A8000126812F0007FD9D1012037E0204B1B689B
:100A900003F00703AB420AD91D4A136823F007038A
:100AA0002B431360136803F00703AB422DD1236877
:100AB00013F0040F06D0174A536823F4E063E1688B
:100AC0000B435360236813F0080F07D0114A536893
:100AD00023F46053216943EAC1035360FFF742FFE7
:100AE0000C4B5B68C3F303130B4AD35CD8400B4B2E
:100AF00018600B4B1868FFF72BFB002070BD01201E
:100B000070470120FAE70120F8E70120F6E700BF6F
:100B10000020024000100240283300081C02002080
:100B2000040000202DE9F04782B0054688461746AC
:100B30001E46FFF751FB0A9B1B1A03EB0609FFF742
:100B40004BFB8246284B1B68C3F3CB3309FB03F3F3
:100B500001932B689C6838EA04040CBF012300232E
:100B6000BB423DD0B6F1FF3FF3D0FFF735FBA0EB22
:100B70000A00484507D2019A02B14A46019B013B4F
:100B800001939146E5E72A68536823F0E003536038
:100B90006B68B3F5827F0BD0AB6AB3F5005F14D0FE
:100BA000012385F85130002385F85030032018E0E8
:100BB000AB68B3F5004F02D0B3F5806FECD12A6873
:100BC000136823F040031360E6E72A68136823F4F0
:100BD000005313602A68136843F400531360DFE77F
:100BE000002002B0BDE8F0871C02002010B582B0E2
:100BF00004460B46009200228021FFF793FF08B9BC
:100C000002B010BD636D43F0200363650320F7E776
:100C1000002856D010B50446436A33B94368B3F58B
:100C2000827F05D00023C36102E00023036143619A
:100C30000023A36294F85130002B3CD0022384F8A7
:100C400051302268136823F040031360636803F493
:100C50008273A26802F404421343E26802F4006261
:100C60001343226902F002021343626902F0010297
:100C70001343A26902F400721343E26902F03802DE
:100C80001343226A02F080021343A26A02F4005264
:100C9000216813430B60638B226803F004035360E5
:100CA0002268D36923F40063D361002060650123C7
:100CB00084F8513010BD84F85030204601F08CFD8E
:100CC000BCE7012070472DE9F04383B01D4690F842
:100CD0005030012B00F0D180044688469146012314
:100CE00080F85030FFF778FA074694F85160F6B272
:100CF000012E40F0BA80B8F1000F00F0B780B9F1D2
:100D0000000F00F0B380032384F8513000236365A3
:100D1000C4F83080A4F83490A4F83690A363A38775
:100D2000E38763642364A368B3F5004F1ED0236890
:100D30001A6812F0400F03D11A6842F040021A609C
:100D4000E368B3F5006F1CD0636813B1B9F1010F0C
:100D500055D1226B236812781A73236B01332363F6
:100D6000E38E9BB2013B9BB2E38648E022681368A6
:100D700023F0400313602268136843F48043136038
:100D8000D5E7636813B1B9F1010F15D1226B236860
:100D90001288DA60236B02332363E38E9BB2013B3C
:100DA0009BB2E38608E0FFF717FAC01BA84202D304
:100DB000B5F1FF3F15D1A5B1E38E9BB2002B3CD01E
:100DC00023689A6812F0020FEDD0226B1288DA6065
:100DD000236B02332363E38E9BB2013B9BB2E3861A
:100DE000EAE7012384F8513003263FE0FFF7F4F9E6
:100DF000C01BA84202D3B5F1FF3F19D1C5B1E38EA4
:100E00009BB2D3B123689A6812F0020FEED0226B26
:100E100012781A73236B01332363B4F836C01FFAB8
:100E20008CFC0CF1FF3C1FFA8CFCA4F836C0E6E702
:100E3000012384F85130032618E03A46294620461B
:100E4000FFF7D4FE08B120236365A36833B901938B
:100E50002368DA6801929B680193019B636D2BB94B
:100E6000012384F85130002600E00226002384F894
:100E70005030304603B0BDE8F0830226F9E70000A9
:100E8000EFF3058393B9EFF3108393B90C4B186814
:100E9000022804D080B90A4B01221A607047EFF390
:100EA0001183002BF6D06FF0050070476FF005003E
:100EB00070476FF0050070474FF0FF30704700BF7C
:100EC00090020020F0B587B000240494EFF305846D
:100ED000002C43D1EFF31083002B3FD1334B1B6821
:100EE000022B16D0002839D000238DF8173062B3BA
:100EF000156895B1936903B918235C1E372C51D836
:100F0000546814F0010F4FD156694EB14FEA960C58
:100F100008E0EFF311830BBBE4E70DF11705E9E7F8
:100F20004FF0800C94682CB1D7685B2F02D91769F9
:100F300007B1B6B914B14FF0FF340CE0D46894B9DE
:100F400014699CB14FF0FF3405E0002418234FF0E2
:100F5000800C0DF11705012C0AD0ACB1049807B034
:100F6000F0BD0124F7E74FF0FF34F4E70024F2E787
:100F7000146992680292019400930B4662462946D6
:100F800000F018FE0490E9E704AA019200930B46D2
:100F90001FFA8CF2294600F047FE0128DED000231C
:100FA0000493DBE70020DAE70020D8E79002002076
:100FB00008B5EFF30583A3B9EFF31083A3B90C4B86
:100FC0001B68022B02D040B9002008BDEFF311834B
:100FD000002BF8D06FF00500F7E700F067FF002066
:100FE000F3E76FF00500F0E76FF00500EDE700BFF5
:100FF0009002002070B5EFF30583002B4BD104461F
:10100000EFF310821346002A48D1274A1268022AB9
:1010100022D004B1636813F0010600D0012613F05A
:10102000080F3DD174B3A16811B1E3684F2B1ED8EE
:10103000C1B14FF0FF33ABBB46B3042000F062FCFC
:1010400005464DB304B124682146284600F074FCDF
:1010500016B345F001051FE0EFF31182002AD8D046
:10106000002519E0E3687BB14FF0FF33E3E726B1D9
:10107000042000F052FC0546E3E7012000F04DFC9F
:101080000546DEE70023D6E70023D4E7012000F081
:1010900039FC0546D5E70025284670BD0025FBE74D
:1010A0000025F9E70025F7E79002002000F108038A
:1010B00043604FF0FF328260C3600361002303602E
:1010C000704700230361704743684B609A688A60E9
:1010D000516099600861036801330360704730B460
:1010E0000D68B5F1FF3F11D000F108031C465B68A5
:1010F0001A68AA42FAD963684B6099608C60616093
:10110000086103680133036030BC70470469F2E78B
:101110000369416882688A60416851605A68824206
:1011200006D0002202611A68013A1A6018687047F6
:1011300082685A60F5E7000082B0002301930D4BEE
:101140001B68B3F1FF3F08D04FF0500383F31188C1
:10115000BFF36F8FBFF34F8FFEE74FF0500383F362
:101160001188BFF36F8FBFF34F8F019B002BFCD013
:1011700002B07047080000204FF0807340F8043C34
:1011800021F0010140F8081C034B40F80C3C40F8EA
:10119000202C4038704700BF3911000800000000C3
:1011A000074B19680868B0E8F00F80F30988BFF3AF
:1011B0006F8F4FF0000080F311884EF00D0E7047D6
:1011C000E01300204FF0500383F31188BFF36F8FBB
:1011D000BFF34F8F0B4A136801331360012B00D00C
:1011E00070474FF0E023D3F8043D13F0FF0FF7D022
:1011F0004FF0500383F31188BFF36F8FBFF34F8F0E
:10120000FEE700BF08000020094B1B6843B94FF000
:10121000500383F31188BFF36F8FBFF34F8FFEE747
:10122000013B034A13600BB983F31188704700BF79
:101230000800002000000000000000000000000086
:10124000EFF30980BFF36F8F0D4B1A6820E9F00FA1
:1012500010602DE908404FF0500080F3118800F035
:101260004BFE4FF0000080F31188BDE8084019687C
:101270000868B0E8F00F80F30988BFF36F8F7047FC
:10128000E013002008B54FF0500383F31188BFF33B
:101290006F8FBFF34F8F00F001FD28B14FF0E023B7
:1012A0004FF08052C3F8042D002383F3118808BD4A
:1012B000124A12F0070F1ED0D11D21F00701C1F50F
:1012C000406313440A460E48026000214160134403
:1012D000083B23F007030B48036059601960991A13
:1012E00051601360084B1960084B1960084B4FF0B0
:1012F00000421A6070474FF44063E4E7AC020020FC
:10130000A4020020A0020020980200209C020020DD
:1013100094020020154B1A461B688342FBD3516888
:1013200002EB010C844509D0416800EB010C6345D8
:1013300009D00360904218D01060704740680144A3
:1013400051601046F0E710B4094C2468A3420AD05B
:101350005B681944416013681B680360904200D0C9
:10136000106010BC70470460F8E77047A4020020CA
:10137000A002002038B5044600F088FC364B1B68FC
:10138000B3B1364B1B681C424CD1002C4CD004F13D
:10139000080214F0070F02D022F007020832002AD8
:1013A00051D02F4B1B6893424FD32E490C6804E059
:1013B000FFF77EFFE5E721461C466368934202D2B1
:1013C0002368002BF7D1244B1B68A3423FD00D6844
:1013D000083523680B6063689B1A102B10D9A0187E
:1013E00010F0070F08D04FF0500383F31188BFF3BC
:1013F0006F8FBFF34F8FFEE743606260FFF78AFF96
:10140000626817490B689B1A0B60174909688B4281
:1014100001D215490B60114B1B6813436360002315
:10142000236002E0002500E0002500F0C3FC15F079
:10143000070F0ED04FF0500383F31188BFF36F8F67
:10144000BFF34F8FFEE70025EFE70025EDE700250E
:10145000EBE7284638BD00BFA00200209402002020
:101460009C020020A40200209802002080B338B51E
:101470000446A0F1080550F8043C164A12681342CD
:1014800008D14FF0500383F31188BFF36F8FBFF380
:101490004F8FFEE750F8081C41B14FF0500383F323
:1014A0001188BFF36F8FBFF34F8FFEE723EA02036C
:1014B00040F8043C00F0EAFB54F8041C064A1368A8
:1014C0000B4413602846FFF725FF00F073FC38BD7E
:1014D000704700BF940200209C02002010B5044613
:1014E000FFF770FEA26BE36B9A4204D00024FFF773
:1014F0008BFE204610BD0124F9E770B50446154661
:10150000866B026C5AB903681BB100200136A663D2
:1015100070BD406800F0FEFD00236360F6E76DB922
:10152000806801F019FAA368226C1344A360626812
:10153000934219D32368A3602846E7E7C06801F007
:101540000BFAE368226C51429B1AE36022689342D3
:1015500002D263680B44E360022D01D00020D5E77E
:1015600026B1013E0020D1E72846CFE70020CDE795
:1015700038B50546FFF726FE95F8454064B201E010
:10158000013C64B2002C0ADD6B6A43B105F1240012
:1015900000F016FD0028F3D000F0A6FDF0E7FF23D1
:1015A00085F84530FFF730FEFFF70CFE95F8444014
:1015B00064B201E0013C64B2002C0ADD2B6943B146
:1015C00005F1100000F0FCFC0028F3D000F08CFDC9
:1015D000F0E7FF2385F84430FFF716FE38BD38B535
:1015E000E0B10D460446FFF7EDFD2368E26B216C88
:1015F00001FB023060600020A063A360013A02FB9F
:101600000133E360FF2384F8443084F84530FDB9AA
:10161000236963B9FFF7F8FD012038BD4FF050038F
:1016200083F31188BFF36F8FBFF34F8FFEE704F191
:10163000100000F0C5FC0028ECD04FF0E0234FF084
:101640008052C3F8042DBFF34F8FBFF36F8FE1E7D4
:1016500004F11000FFF72AFD04F12400FFF726FD36
:10166000D8E738B51D46049C0B4649B92460E063B1
:10167000236401212046FFF7B2FF84F84C5038BDA7
:101680002260F4E740B94FF0500383F31188BFF3B1
:101690006F8FBFF34F8FFEE710B584B01C468446B2
:1016A00053B192B189B94FF0500383F31188BFF35E
:1016B0006F8FBFF34F8FFEE74FF0500383F3118816
:1016C000BFF36F8FBFF34F8FFEE76AB150230393D1
:1016D000039B502B13D04FF0500383F31188BFF3BB
:1016E0006F8FBFF34F8FFEE70029EFD04FF050030D
:1016F00083F31188BFF36F8FBFF34F8FFEE7012392
:1017000084F8463000949DF818306046FFF7A9FF32
:10171000204604B010BD40B94FF0500383F3118848
:10172000BFF36F8FBFF34F8FFEE7F0B583B00C466A
:1017300015460746A1B101FB00F05030FFF71AFE35
:10174000064650B1002380F8463000902B4600F149
:10175000500221463846FFF784FF304603B0F0BD03
:101760000846EAE7F0B585B0019288B10F461D46FC
:101770000446B1B1022D20D1E36B012B1DD04FF0F7
:10178000500383F31188BFF36F8FBFF34F8FFEE7D2
:101790004FF0500383F31188BFF36F8FBFF34F8F68
:1017A000FEE7036C002BE5D04FF0500383F3118864
:1017B000BFF36F8FBFF34F8FFEE700F09BFC064631
:1017C00058B9019B002B48D04FF0500383F3118888
:1017D000BFF36F8FBFF34F8FFEE700263DE02A4631
:1017E00039462046FFF789FE636A7BB948B14FF05E
:1017F000E0234FF08052C3F8042DBFF34F8FBFF3A7
:101800006F8FFFF701FD012005B0F0BD04F124004A
:1018100000F0D6FB0028F4D04FF0E0234FF08052C8
:10182000C3F8042DBFF34F8FBFF36F8FE9E7FFF7C6
:10183000EBFC0020E8E702A800F008FC012619E014
:10184000002384F8443021E0002384F8453023E06D
:101850002046FFF78DFE00F0ADFAFFF7B3FCA26B58
:10186000E36B9A42BBD3022DB9D0019B002BDED093
:10187000002EE0D0FFF7C8FC00F008FAFFF7A2FC4A
:1018800094F8442052B2B2F1FF3FD9D094F84520E9
:1018900052B2B2F1FF3FD7D0FFF7B6FC01A902A8C0
:1018A00000F0E0FBD8B92046FFF718FE0028CFD0A3
:1018B000019904F1100000F06BFB2046FFF758FE81
:1018C00000F078FA0028C8D14FF0E0234FF08052A2
:1018D000C3F8042DBFF34F8FBFF36F8FBDE72046D2
:1018E000FFF746FE00F066FA00208DE748B108B524
:1018F000002141600160C1600B460A46FFF732FFDC
:1019000008BD704710B5024600210120FFF703FF14
:101910000446FFF7EBFF204610BD10B582B00B4622
:101920000090002211460120FFF7ACFE0446FFF7AD
:10193000DDFF204602B010BD0023072B0CD8074A5C
:1019400052F833200AB10133F7E7044A42F8331062
:1019500002EBC30250607047704700BFAC0E00201E
:10196000084B1B681B6823B9074B4FF0FF321A6006
:101970007047044B1B68DB68DB685A68024B1A60CF
:10198000704700BF540F0020F00E00202DE9F047F3
:1019900080460D4617469946089EDDF824A00A9C0D
:1019A0009200A521206B00F0A9FF236B07F1804274
:1019B000013A03EB820727F007074FF0000CBCF158
:1019C0000F0F09D815F80C3004EB0C0282F83430F4
:1019D00013B10CF1010CF2E7002384F84330372EE9
:1019E00000D93726E662E66400252565201DFFF74D
:1019F00068FB04F11800FFF764FB2461C6F13806A8
:101A0000A6616462656584F858504A464146384686
:101A1000FFF7B2FB2060BAF1000F01D0CAF8004016
:101A2000BDE8F08738B5002407E004EB840293009A
:101A30000E481844FFF73AFB0134372CF5D90C4D0A
:101A40002846FFF733FB0B4C2046FFF72FFB0A48D5
:101A5000FFF72CFB0948FFF729FB0948FFF726FB96
:101A6000084B1D60084B1C6038BD00BF800F002074
:101A70006C0F0020580F00203C0F0020280F002082
:101A8000140F0020540F0020500F002010B5044602
:101A9000FFF798FB224A136801331360214B1B6840
:101AA0005BB1214B1B686BB91E4B1B68DA6AE36A9A
:101AB0009A4207D81B4B1C6004E01A4B1C60136849
:101AC000012B29D0194A1368013313606364E06A5B
:101AD000174B1B68984201D9154B186000EB80002A
:101AE000211D144B03EB8000FFF7EEFAFFF78CFB90
:101AF0000D4B1B687BB10B4B1B68DA6AE36A9A4299
:101B000009D24FF0E0234FF08052C3F8042DBFF309
:101B10004F8FBFF36F8F10BDFFF784FFD2E700BF79
:101B2000100F0020E0130020040F0020F40E00200E
:101B3000080F0020800F002070B504460D46174B9B
:101B40001E68174B18680430FFF7E2FAB4F1FF3F44
:101B50000DD03444124B1B685C60A64210D9114B67
:101B600018680F4B19680431FFF7B9FA70BD002DE2
:101B7000EFD00B4B196804310B48FFF7A5FAF5E7D6
:101B80000A4B1868064B19680431FFF7A8FA084B8E
:101B90001B68A342EAD9064B1C60E7E70C0F002044
:101BA000E0130020500F0020140F0020540F0020DD
:101BB000F00E002030B587B00B9C7CB10C9DB5B108
:101BC0005C250495049D5C2D1AD04FF0500383F3DF
:101BD0001188BFF36F8FBFF34F8FFEE74FF05003B5
:101BE00083F31188BFF36F8FBFF34F8FFEE74FF082
:101BF000500383F31188BFF36F8FBFF34F8FFEE75E
:101C00000C9D2C63022485F859400024039402950E
:101C100005AC01940A9C0094FFF7B8FE0C98FFF7FE
:101C200035FF059807B030BD2DE9F04385B0074674
:101C3000884614461E469000FFF79CFB08B3814679
:101C40005C20FFF797FB0546A8B1C0F83090002351
:101C500080F85930039302900D9B01930C9B0093E5
:101C60003346224641463846FFF790FE2846FFF7A6
:101C70000DFF012007E04846FFF7F8FB4FF0FF306B
:101C800001E04FF0FF3005B0BDE8F083024A136871
:101C900001331360704700BFEC0E0020F8B53A4BDB
:101CA0001B68002B64D1394B1D6801351D60C5B917
:101CB000374B1B681B6843B14FF0500383F3118807
:101CC000BFF36F8FBFF34F8FFEE7314A1168314B7F
:101CD000186810601960304A136801331360FFF709
:101CE0003FFE2E4B1B68AB4238D900272C4B1B689C
:101CF000DB6A03EB83039A002A4B9B58012B3CD9E8
:101D000001273AE00127224B1B681B6843B3204B95
:101D10001B68DB68DC6863689D4226D3261D30465D
:101D2000FFF7F6F9A36A1BB104F11800FFF7F0F909
:101D3000E36A1D4A1268934201D91B4A136003EB00
:101D400083039A00314617481044FFF7BDF9E26A51
:101D5000134B1B68DB6A9A42D4D2D4E70027D2E740
:101D60000E4B4FF0FF321A60C0E70C4A1360BDE71C
:101D70000E4A13680133136000270D4B1B6803B133
:101D800001273846F8BD00BFEC0E00200C0F0020E4
:101D9000540F0020500F0020F80E0020F00E0020FD
:101DA000E0130020800F0020080F0020000F00200B
:101DB000FC0E002038B5354B1B6843B94FF050037B
:101DC00083F31188BFF36F8FBFF34F8FFEE7FFF7E9
:101DD000F9F92E4B1A68013A1A601B68002B4FD193
:101DE0002B4B1B680BB900244BE00024294B1B68CC
:101DF0001BB3284BDB68DC6804F11800FFF788F997
:101E0000251D2846FFF784F9E06A234B1B6898429A
:101E100001D9214B186000EB800029461F4B03EBD2
:101E20008000FFF751F9E26A1D4B1B68DB6A9A429A
:101E3000DCD31C4B01221A60D8E70CB1FFF790FDF0
:101E4000194B1C6884B9174B1C68D4B14FF0E023C0
:101E50004FF08052C3F8042DBFF34F8FBFF36F8F45
:101E600001240EE0013C07D0FFF718FF0028F9D04D
:101E70000C4B01221A60F5E70B4B00221A60E2E7D7
:101E80000024FFF7C1F9204638BD00BFEC0E00204A
:101E9000100F00203C0F0020080F0020800F0020B2
:101EA000E0130020FC0E0020000F002010B5A8B1A8
:101EB0000446104B1B6843B14FF0500383F3118865
:101EC000BFF36F8FBFF34F8FFEE7FFF7DFFE0021F9
:101ED0002046FFF731FEFFF76DFF48B94FF0E023D2
:101EE0004FF08052C3F8042DBFF34F8FBFF36F8FB5
:101EF00010BD00BFEC0E0020204B1B681BB1204B17
:101F000001221A6070471E4B00221A601D4B1B688D
:101F100003EB83018A001C498A585AB90BB1013B73
:101F2000F6E74FF0500383F31188BFF36F8FBFF3D1
:101F30004F8FFEE7084603EB83018A000244516895
:101F40004968516003EB830C4FEA8C02083202446B
:101F500091420BD003EB830291000B4A0A44526872
:101F6000D1680A4A1160074A1360704748686246A0
:101F70009100054A0A445060ECE700BFEC0E0020D7
:101F8000FC0E0020080F0020800F0020E01300202E
:101F900058B110B50C46094A11681831FFF79FF87F
:101FA00001212046FFF7C8FD10BD4FF0500383F319
:101FB0001188BFF36F8FBFF34F8FFEE7E013002050
:101FC00038B5C368DC6824B304F118052846FFF768
:101FD0009FF8184B1B682BBB251D2846FFF798F868
:101FE000E06A154B1B68984201D9134B186000EB4F
:101FF00080002946114B03EB8000FFF765F8E26A89
:102000000F4B1B68DB6A9A4211D901200D4B1860F7
:1020100038BD4FF0500383F31188BFF36F8FBFF3C8
:102020004F8FFEE729460848FFF74EF8E7E7002004
:10203000EEE700BFEC0E0020080F0020800F00200C
:10204000E0130020FC0E00203C0F0020034B1B6817
:102050000360034B1B684360704700BFF80E00200D
:102060000C0F0020D8B170B50C46054601B3FFF740
:10207000A9F81B4B19686B68C81A2268B2F1FF3FB8
:1020800027D0184E3668D5F800C0B44501D08B4231
:1020900024D9824215D80023236001241AE04FF08E
:1020A000500383F31188BFF36F8FBFF34F8FFEE7A9
:1020B0004FF0500383F31188BFF36F8FBFF34F8F3F
:1020C000FEE75B1A134423602846FFF7BFFF002496
:1020D00000E00024FFF798F8204670BD0124F9E7DE
:1020E0000C0F0020F80E0020014B01221A607047EF
:1020F000FC0E0020054B1B6833B1054B1B680BB170
:10210000002070470220704701207047040F002014
:10211000EC0E002000283BD038B504461E4B1B684F
:10212000834208D04FF0500383F31188BFF36F8FC1
:10213000BFF34F8FFEE7036D43B94FF0500383F3B6
:102140001188BFF36F8FBFF34F8FFEE7013B03652D
:10215000C16AC26C91421DD00BB1002038BD051D73
:102160002846FEF7D5FFE06CE062C0F13803A361BA
:102170000A4B1B68984201D9084B186000EB80009D
:102180002946074B03EB8000FEF79EFF0120E5E7A1
:10219000002070470020E1E7E0130020080F002036
:1021A000800F002008B5104B26221A600F4B012229
:1021B0001A600CE0012222600D4B00220B490988B5
:1021C0000C4800F0A1FA4FF4FA70FEF70BF8074C38
:1021D000094B00222188074800F096FA2368013352
:1021E0002360052BE6DCE7E7EC130020E813002072
:1021F000743200080C000020703200082DE9F04312
:1022000089B000240494059406940794384B9A6985
:1022100042F010029A619A6902F010020092009A4C
:102220009A6942F020029A619A6902F020020192B2
:10223000019A9A6942F004029A619A6902F00402D2
:102240000292029A9A6942F008029A619B6903F02D
:1022500008030393039BDFF89C9022464FF4005140
:102260004846FEF752F9244D224610212846FEF733
:102270004CF9224E224603213046FEF746F94FF430
:10228000005304934FF00108CDF814800694022700
:10229000079704A94846FEF723F810230493CDF8C6
:1022A0001480069407970DEB03012846FEF718F8F3
:1022B00003230493CDF814800694079704A93046AD
:1022C000FEF70EF84FF4704304930594069404A9A6
:1022D0003046FEF705F84FF4807304930594069496
:1022E00004A92846FDF7FCFF09B0BDE8F08300BF54
:1022F000001002400010014000080140000C0140A5
:1023000008B54FF400510448FEF705F94FF4FA7090
:10231000FEF74EFEF5E700BF0010014008B50A20A9
:10232000FDF760FF4FF400410148FEF7E7F808BDF4
:10233000000C014008B50A20FDF754FF4FF480411E
:102340000148FEF7DBF808BD000C014010B584B071
:102350000A4B1A6801321A60002401940294ADF805
:102360000C40074901A800F0A9FA01AB3C22214624
:10237000044800F0C9F904B010BD00BFE413002008
:10238000783200080C00002038B5FFF7C7FF01289D
:1023900024D0FFF7CFFF012845D03A4B1968052913
:1023A000F3D1394B1B68012BEFD1384D384B00224C
:1023B00089B2284600F0A8F9324B00221A60324C4C
:1023C00022880521284600F06FF924682E4B1B68EF
:1023D0000733A3424FDAFFF7B9FFD6E72A4C2B4D5C
:1023E00022880521284600F05FF90021284600F0E8
:1023F000B7F92368013323604B2B01DD4B222260A8
:10240000214C22880521214800F04EF9246804E07F
:10241000C0211E4800F0A4F901341B4B1B68073390
:10242000A342F5DAB5E7184C22680732174D92B28D
:102430000521284600F038F90021284600F090F9DF
:102440002368013B2360002B07DD0F4C2288052108
:102450000E4800F029F9246807E001222260F4E721
:10246000C0210A4800F07CF90134074B1B68073390
:10247000A342F5DA91E7C021044800F071F9013474
:10248000A4E700BFE8130020EC1300200C0000209C
:102490007032000872B6FEE708B50D480D4B0360B8
:1024A0004FF48273436000238360C3600361436120
:1024B0004FF4007282612822C26103624362836228
:1024C0000A23C362FEF7A4FB00B908BDFFF7E2FFD1
:1024D000501400200030014000B591B028220021A6
:1024E00006A800F00BFA00230193029303930493D0
:1024F0000593012206924FF4803307930A92022239
:102500000D920E934FF4E0130F9306A8FEF722F8F6
:1025100080B90F23019302210291002303934FF40A
:1025200080620492059301A8FEF746FA20B911B023
:102530005DF804FBFFF7AEFFFFF7ACFF08B5FDF752
:102540002DFEFFF7C9FFFFF759FEFFF7A5FF254C4A
:10255000204600F078F8204600F0C0F82622052139
:10256000204600F0A1F8C021204600F0F9F8C02173
:10257000204600F0F5F8C021204600F0F1F8C02117
:10258000204600F0EDF8C021204600F0E9F8C02117
:10259000204600F0E5F8C021204600F0E1F8C02117
:1025A000204600F0DDF8FFF7D1FEFEF769FC0E488B
:1025B000FEF720FD0D4B18600D4A00210D48FEF777
:1025C00081FC0D4B18600D4A00210D48FEF77AFC86
:1025D0000C4B18600C4A00210C48FEF773FC0C4BA6
:1025E0001860FEE70C000020AC3200084014002008
:1025F00004330008012300084C140020E0320008D6
:10260000A521000848140020BC32000889230008D6
:102610004414002010B582B004468DF80710002243
:10262000018B4069FDF771FF4FF0FF3301220DF17F
:1026300007012068FEF747FB0122218B6069FDF747
:1026400064FF02B010BD10B504460122018AC068C3
:10265000FDF75BFF0A20FDF7C5FD0022218AE06837
:10266000FDF753FF0A20FDF7BDFD0122218AE06836
:10267000FDF74BFF002221896068FDF746FF21210D
:102680002046FFF7C7FF12212046FFF7C3FFC021F6
:102690002046FFF7BFFF20212046FFF7BBFF0C219C
:1026A0002046FFF7B7FF10BD70B504460E4615462D
:1026B000002201894068FDF728FF20212046FFF70E
:1026C000A9FF46F04001C9B22046FFF7A3FF65F01D
:1026D0007F01C9B22046FFF79DFF70BD38B50546A2
:1026E00000221146FFF7E0FF012229896868FDF703
:1026F0000CFF002404E000212846FFF78BFF013483
:10270000B4F5FC7FF7DB38BD2DE9F041064698466D
:10271000FFF7CAFF012231897068FDF7F6FE002736
:102720000DE02A78203A02EB82020C4B1344195D2B
:102730003046FFF76FFF0134042CF2DD013708EB60
:10274000070518F807300BB10024F5E7002231899E
:102750007068FDF7DAFEBDE8F08100BF28000020B8
:1027600038B504460D46012201894068FDF7CDFECB
:1027700029462046FFF74EFF002221896068FDF7B9
:10278000C4FE38BD00B583B0114B9A6942F0010216
:102790009A619A6902F001020092009ADA6942F0A5
:1027A0008052DA61DB6903F080530193019B0022C0
:1027B0000F216FF00100FDF76FFD064A536823F00B
:1027C000E06343F00073536003B05DF804FB00BFA7
:1027D000001002400000014010B586B000230293B3
:1027E0000393049305930268164B9A4201D006B0F6
:1027F00010BD03F560439A6942F480529A619A6968
:1028000002F480520092009A9A6942F004029A619E
:102810009B6903F004030193019BA023029302230D
:10282000039303230593084C02A92046FDF758FDA6
:102830004023029300230393049302A92046FDF74B
:102840004FFDD4E70030014000080140FEE7FEE7FD
:10285000FEE7FEE7FEE7704708B5FDF7B1FCFFF7BE
:1028600049FC012800D108BDFEF70CFDFBE77047CD
:10287000FFF7FDFF0B480C490C4A002302E0D45837
:10288000C4500433C4188C42F9D3094A094C0023BC
:1028900001E013600432A242FBD300F037F8FFF7E7
:1028A0004DFE7047000000207002002074330008C5
:1028B00070020020F4150020FEE700000EB46FF057
:1028C000004100B59CB01DAB0290069007910491A9
:1028D0000848094953F8042B0591006802A901939F
:1028E00000F09AF90022029B1A701CB05DF804EB0C
:1028F00003B07047200200200802FFFF0346024495
:10290000934200D1704703F8011BF9E770B5002628
:102910000C4D0D4C641BA410A64209D100F092FC92
:1029200000260A4D0A4C641BA410A64205D170BDB6
:1029300055F8043B98470136EEE755F8043B9847B5
:102940000136F2E76C3300086C3300086C33000882
:1029500070330008704770470A44914200F1FF331A
:1029600000D1704710B511F8014B914203F8014FA7
:10297000F9D110BD38B50546002940D051F8043CC6
:102980000C1F002BB8BFE41800F0DEF81C4A1368D7
:1029900033B9636014602846BDE8384000F0DAB807
:1029A000A34208D9206821188B4201BF19685B68CF
:1029B00009182160EDE71A465B680BB1A342FAD90A
:1029C00011685018A0420BD120680144501883426E
:1029D0001160E0D118685B68084410605360DAE762
:1029E00002D90C232B60D6E7206821188B4201BF47
:1029F00019685B680918216063605460CBE738BDD3
:102A0000EC15002070B50F4E0C463168054611B923
:102A100000F0B6FB30602146284600F0B1FB431CB5
:102A200003D14FF0FF34204670BDC41C24F00304D2
:102A3000A042F8D0211A284600F0A2FB0130F2D1C2
:102A4000EFE700BFE81500202DE9F843CD1C25F085
:102A5000030508350C2D38BF0C25002D064601DB7B
:102A6000A94204D90C2333600020BDE8F883DFF8C5
:102A7000D48000F069F8D8F800301C4644BB2946E1
:102A80003046FFF7BFFF431C044658D1D8F800403A
:102A90002746002F43D1002C4BD0236839463046BF
:102AA00004EB030900F06CFB814542D121683046FC
:102AB0006D1A2946FFF7A6FF01303AD023682B4450
:102AC0002360D8F800305A6862BBC8F800700FE085
:102AD0002268521B20D40B2A17D96119A342256002
:102AE00018BF5960636808BFC8F8001062514B6096
:102AF000304600F02FF804F10B00231D20F00700F2
:102B0000C21A1CBF1B1AA350AFE76268A3420CBFD6
:102B1000C8F800205A60EBE723466468AEE73C46FD
:102B20007F68B6E71A465B68A342FBD10023536077
:102B3000DEE70C233046336000F00CF894E70560C4
:102B4000D6E700BFEC1500200148FFF703BF00BF28
:102B5000E41500200148FFF7FEBE00BFE415002089
:102B60002DE9F0471F468E688246BE420C469046CD
:102B70000B682DD8B1F90C2012F4906F26D065693E
:102B8000096905EB4505A3EB010905EBD5757B1C30
:102B90004B446D109D4238BF1D46530527D529462D
:102BA000FFF752FF064660B34A462169FFF7D4FE9D
:102BB000A38923F4906343F08003A38126614E44EC
:102BC00026603E466561A5EB0905A560BE4200D9B9
:102BD0003E4632464146206800F0B8FA0020A3681D
:102BE0009B1BA360236833442360BDE8F0872A461B
:102BF00000F0E4FA06460028E0D150462169FFF7CC
:102C0000B9FE0C23CAF80030A3894FF0FF3043F01F
:102C10004003A381E9E700002DE9F04F98468B8936
:102C200007461B060D4614469DB010D50B6973B9B7
:102C30004021FFF709FF2860286130B90C233B6071
:102C40004FF0FF301DB0BDE8F08F40236B610023D3
:102C5000099320238DF8293030234FF00109CDF856
:102C60000C80DFF898818DF82A3023469A4613F8B5
:102C7000012B0AB1252AF9D1BAEB040B0BD05B4624
:102C8000224629463846FFF76BFF013000F0A78047
:102C9000099A5A4409929AF80030002B00F09F805C
:102CA00000234FF0FF32CDE905230AF1010A049316
:102CB00007938DF853301A935446052214F8011BDC
:102CC0004E4800F06DFA049AD8B9D00644BF2023CC
:102CD0008DF85330110744BF2B238DF853309AF8E9
:102CE00000302A2B15D0544600204FF00A0C079ACA
:102CF000214611F8013B303B092B4BD9B0B107926B
:102D000014E0A0EB080309FA03F31343A24604936B
:102D1000D2E7039B191D1B680391002BBBBF5B42CD
:102D200042F0020207930793B8BF049223782E2B38
:102D30000AD163782A2B32D1039B02341A1D1B68F7
:102D4000039243EAE3730593DFF8B4A003225046ED
:102D5000217800F025FA38B14022049BA0EB0A004C
:102D6000824013430134049314F8011B06222548C2
:102D70008DF8281000F014FA002836D0224B1BBB27
:102D8000039B073323F0070308330393099B334462
:102D900009936AE70C4601200CFB0232A8E70023E6
:102DA0004FF00A0C194601340593204610F8012B08
:102DB000303A092A03D9002BC6D00591C4E704464E
:102DC00001230CFB0121F0E703AB00932A463846B0
:102DD0000E4B04A9AFF30080421C0646D6D1AB8946
:102DE0005B063FF52DAF09982CE703AB00932A460D
:102DF0003846064B04A900F07DF8EDE738330008AB
:102E00003E3300084233000800000000612B000838
:102E10002DE9F047164698468A680B6907469342A3
:102E2000B8BF1346336091F843200C46DDF820907C
:102E30000AB1013333602368990642BF3368023315
:102E40003360256815F0060506D104F1190AE36818
:102E500032689B1AAB422BDC94F843302268003B6B
:102E600018BF0123920630D44146384604F143028C
:102E7000C847013023D02368226903F00603042BDE
:102E800014BF002533684FF0000608BFE56804F161
:102E90001A0408BFED1A54F8123C08BF25EAE5757C
:102EA0009342C4BF9B1AED18B5421AD1002008E026
:102EB0000123524641463846C847013003D14FF0FE
:102EC000FF30BDE8F0870135C1E73020E11881F817
:102ED00043005A1C94F845102244023382F84310F0
:102EE000C2E70123224641463846C8470130E6D0B2
:102EF0000136D9E72DE9FF470F7E9146782F8046AE
:102F00000C469A460C9E01F1430207D8622F0AD85C
:102F1000002F00F0DD80582F00F0C38004F142063E
:102F200084F842703AE0A7F16303152BF6D801A1AB
:102F300051F823F08D2F0008A12F00081D2F000845
:102F40001D2F00081D2F00081D2F0008A12F0008AD
:102F50001D2F00081D2F00081D2F00081D2F000821
:102F6000B73000082F3000086F3000081D2F000810
:102F70001D2F0008D93000081D2F00082F30000831
:102F80001D2F00081D2F00087730000833681A1D18
:102F90001B68326004F1420684F842300123A8E045
:102FA00031682368081D30601E0601D50D6803E0F6
:102FB0005D06FBD5B1F90050002D616878DA2D204F
:102FC000002984F84300A1602DDA0A235D486D4290
:102FD0001646B5FBF3F103FB1157C75D06F8017DFB
:102FE0002F46BB420D46F4D9082B0BD12368DF07CF
:102FF00008D5236961689942DEBF302306F8013C99
:1030000006F1FF36921B22614B4621464046CDF821
:1030100000A003AAFFF7FCFE01306FD14FF0FF3094
:1030200004B0BDE8F08723F004032360CDE72168F6
:103030003368080653F8045B02D4490648BFADB2B2
:103040006F2F336014BF0A2308233E48002184F801
:1030500043106668002EA660BADB216821F00401E7
:103060002160002DB4D1002EB2D11646BCE72368F2
:1030700043F0200323607827334884F845702368A1
:1030800031681F0651F8045B02D45F0648BFADB239
:103090003160D90744BF43F0200323601DB11023E2
:1030A000D4E72848E9E7236823F020032360F6E704
:1030B0000A232448CDE733682568181D616930600C
:1030C0002E061B6801D5196002E06806FBD5198041
:1030D00000231646236197E7336800211A1D3260EA
:1030E0001E686268304600F05BF808B1801B6060C3
:1030F00063682361002384F8433085E732464946FC
:1031000040462369D047013088D023689B0714D4F8
:10311000E068039B9842B8BF184681E70123324616
:1031200049464046D04701303FF478AF0135E36867
:1031300003995B1AAB42F1DCEAE7002504F11906BA
:10314000F5E700BF493300085A330008884210B53C
:1031500001EB020402D98442234607D8431EA14250
:1031600008D011F8012B03F8012FF8E701460244BB
:103170008A4200D110BD13F8014D02F8014DF7E766
:1031800038B50023054D044608462B6000F04CF886
:10319000431C02D12B6803B1236038BDE015002029
:1031A000034610B5C9B202449342184601D100202B
:1031B00003E0047801338C42F6D110BD2DE9F041D3
:1031C000804615460C4621B91146BDE8F041FFF78F
:1031D0003BBC2AB9FFF7CEFB00242046BDE8F081B6
:1031E00000F01AF88542064602D8B5EB500FF4D825
:1031F00029464046FFF728FC07460028ECD0B54298
:103200002A46214628BF3246FFF7A6FB2146404604
:10321000FFF7B0FB3C46E0E751F8043C181F002BD9
:10322000BCBF0B58C0187047044A05491368002BEF
:1032300008BF0B461844106018467047F015002070
:10324000F8150020F8B500BFF8BC08BC9E467047D2
:0C325000F8B500BFF8BC08BC9E467047F3
:10325C000102000002030405060708090A0B0C0D05
:10326C000E0F101020000000230000002564000049
:10327C005350495F4D5554455800000042757474C5
:10328C006F6E5F5461736B004C43445F5461736B9E
:10329C000000000064656661756C745461736B00AA
:1032AC007C32000800000000F013002050000000E9
:1032BC008832000800000000000000000000000040
:1032CC0000000000000200001800000000000000D8
:1032DC000000000094320008000000000000000014
:1032EC0000000000000000000002000018000000B8
:1032FC000000000000000000A032000800000000E8
:10330C0000000000000000000000000000020000AF
:10331C001800000000000000000000000000000089
:10332C00000000000102030406070809232D302BBE
:10333C002000686C4C0065666745464700303132AA
:10334C003334353637383941424344454600303101
:10335C003233343536373839616263646566000060
:04336C00350100081F
:04337000110100083F
:103374000100000010000000AAAAAAAA501400200C
:10338400000C014001000000000C0140020000009C
:103394000008014010000000000000000000002FA1
:1033A40000000007000700147F147F14242A7F2ADA
:1033B40012231308646236495522500005030000A5
:1033C400001C2241000041221C0014083E0814087D
:1033D400083E08080000A06000080808080800600B
:1033E40060000020100804023E5149453E00427F1F
:1033F400400042615149462141454B311814127F26
:103404001027454545393C4A4949300171090503AE
:103414003649494936064949291E00363600000016
:1034240056360000081422410014141414140041E8
:103434002214080201510906324959513E7C1211E5
:10344400127C7F494949363E414141227F41412214
:103454001C7F494949417F090909013E4149497A8B
:103464007F0808087F00417F41002040413F017FE1
:10347400081422417F404040407F020C027F7F04B9
:1034840008107F3E4141413E7F090909063E4151F2
:10349400215E7F09192946464949493101017F01C5
:1034A400013F4040403F1F2040201F3F4038403FE5
:1034B4006314081463070870080761514945430001
:1034C4007F41410055AA55AA550041417F0004029D
:1034D40001020440404040400003050000205454D1
:1034E40054787F4844443838444444203844444859
:1034F4007F3854545418087E09010218A4A4A47CEB
:103504007F0804047800447D40004080847D007F6F
:103514001028440000417F40007C041804787C0893
:103524000404783844444438FC24242418182424FB
:1035340018FC7C080404084854545420043F4440B4
:10354400203C4040207C1C2040201C3C4030403C1F
:1035540044281028441CA0A0A07C4464544C44007B
:10356400107C82000000FF000000827C1000000636
:10357400090906000000000000000000000000002F
:103584000000000000000000000000000024F4001F
:103594002402002000000000A814002010150020C0
:1035A400781500200000000000000000000000006A
:1035B4000000000000000000000000000000000007
:1035C40000000000000000000000000000000000F7
:1035D40000000000000000000000000000000000E7
:040000050800287156
:00000001FF
